:02000000162CBC
:080006000000000000000800EA
:10000E00163083120313FC006C30FD00FD0B0D281F
:08001E00FC0B0D280000080096
:10002600313083120313FD00FD0B1728000000007A
:020036000800C0
:1000380083120317AD1B23280313871125280313E5
:10004800871503172D1B2B28031307112D280313BE
:1000580007150317AD1A3328031387103528031320
:10006800871403172D1A3B28031307103D28031381
:1000780007140317121843280313071645280313F8
:1000880007128716032087120317AD194E2803138A
:10009800871150280313871503172D1956280313A2
:1000A80007115828031307150317AD185E28031303
:1000B800871060280313871403172D186628031365
:1000C8000710682803130714031712186E28031360
:1000D80007167028031307128716032087120317C1
:0C00E800121C782807207928132008003B
:1000F4008312031712102C08AD001C2003171214CE
:020104000800F1
:100106009528803083120317A700A828C030A700BF
:10011600A8289430A700A828D430A700A8288030A3
:10012600A700A828831203172708013A0319842871
:100136002708023A031989282708033A03198C2845
:100146002708043A03198F2892282803F000270865
:10015600F0077008A7007008AD001C2003171210E6
:10016600AA012A082907840000080319C2282A08B8
:10017600290784000008AC007A20AA0AB4281214C1
:0201860008006F
:10018800093083120313FD00FD0BC828000000008E
:0201980008005D
:10019A0083120317A701A901AA011030AB0004308A
:1001AA002A0203180229F030031388008030F00075
:1001BA007008083E840003172B09F00070088000BD
:1001CA00032003200F3003130805F00070080317FB
:1001DA00A80070080319FC282908A7002808031991
:1001EA00FA28A80CA813A70AF3280430AA00AB0D12
:1001FA002B100430A907AA0AD4282708F0000800FF
:10020A00831203131A08F100981C0D2918121816E4
:06021A007108F00008006D
:0E0220000030831203138C1A0130F000080026
:0E022E008312031711088A00100882000800CE
:10023C0083160313871207120710871007118711F3
:10024C0083128712071287110711871007100720D6
:10025C00072007208714071487160320871207200E
:10026C008716032087120720871603208712072082
:10027C000710871603208712072087160320871282
:10028C0087108715871603208712072087110714FC
:10029C008716032087120710871603208712072062
:1002AC00871603208712071487160320871207204E
:1002BC000710871603208712871507158714071454
:0E02CC0087160320871207200317121408005C
:1002DA00CD207008A5000F3003130805F00003199C
:0E02EA007829C420702903172508F0000800A9
:1002F800013083120317AD001C2001300317A7003B
:100308000130A8004F30A90083200F30AD001C2019
:10031800C0300317AD001C208316ED010130831295
:1003280003179502031C9603831203178030F0000D
:10033800803016067002031DA529150883160313BD
:100348006D020318B0292A3083120317AC007A20F3
:0A03580083160313ED0A982908002C
:10036200831603139818B7290000B12983120317C3
:0803720025080313990008009F
:10037A008312031795019601250893002608940015
:10038A000130AD001C200C300317AD001C200130D9
:10039A000317A7000130A8005B30A90083200F30A3
:0E03AA00AD001C20C0300317AD001C20080061
:1003B80083120313EF016D2170080313EF00700817
:1003C800003A0319862A182A3130EF00582A3230A9
:1003D800EF00582A3330EF00582A4130EF00582AEE
:1003E8003430EF00582A3530EF00582A3630EF0005
:1003F800582A4230EF00582A3730EF00582A383050
:10040800EF00582A3930EF00582A4330EF00582AB5
:100418002A30EF00582A3030EF00582A2330EF00F6
:10042800582A4430EF00582A6F08013A0319E8297E
:100438006F08023A0319EB296F08033A0319EE29EA
:100448006F08043A0319F1296F08053A0319F429CA
:100458006F08063A0319F7296F08073A0319FA29AA
:100468006F08083A0319FD296F08093A0319002A89
:100478006F080A3A0319032A6F080B3A0319062A68
:100488006F080C3A0319092A6F080D3A03190C2A48
:100498006F080E3A03190F2A6F080F3A0319122A28
:1004A8006F08103A0319152A6F082A3A031D672A9C
:1004B800003003171606031D632A003015060319BA
:1004C800672A7C21862A831203136F08233A031DA7
:1004D800742A03171308A5001408A600BD21862A4C
:1004E8006F082A3A0319862A6F080317AC007A2086
:1004F80015082407840003136F0880000317950A62
:060508000319960A080029
:10050E0083160313ED010130EE000030EF000630CC
:10051E006D020318A32A6D08D43E84000008F10072
:10052E006D08DA3E8400710800060319A12AF00155
:10053E00F101A72AED0A8E2A0130F0000030F100F9
:02054E000800A3
:1005500083160313860183120617861301300317CF
:10056000AD001C2001300317A7000130A800BD30EA
:10057000A90083200230FB008630FC009930FD008A
:10058000FD0BC02AFC0BC02AFB0BC02A0613080077
:1005900083160313ED0183160C306D020318F02A45
:1005A000102170080319E32A83166D08E03E8312B8
:1005B0000317A40005210317240884007008800095
:1005C00083160313ED0A6D2170080313EF00700802
:1005D000003A0319EF2A8316EE01EF01792BCB2A9B
:1005E00083166D08003A0319792B01308312031723
:1005F000AD001C2001300317A7000130A8002A30ED
:10060000A9008320033083160313ED000C306D0224
:100610000318502B6D08E03E840000088312031776
:10062000A500B12183166D08E03E84000008F200A9
:1006300003306D02F000F101031CF1037008203E4D
:1006400084007208000603194D2B01308312031732
:10065000AD001C2001300317A7000130A800663050
:10066000A90083200230A7000130A800C930A900EA
:1006700083201030FB003930FC000D30FD00FD0BF5
:100680003F2BFC0B3F2BFB0B3F2B00000000130804
:10069000A5001408A600BD21792B8316ED0A062BB0
:1006A000C03083120317AD001C208316ED01063005
:1006B0006D020318732B6D08DA3EF1006D08D43E0D
:1006C00084000008F00071088400700880006D0844
:1006D000DA3E8400000883120317AC007A208316E8
:1006E0000313ED0A572B06308312031795000030D1
:0406F0009600080068
:1006F400831603138601831206138617013003172A
:10070400AD001C2001300317A7000130A8003830C9
:10071400A90083200230FB008630FC009930FD00E4
:10072400FD0B922BFC0B922BFB0B922B86130800D8
:100734001E210130AD001C200C300317AD001C201D
:1007440001300317A7000130A800AC30A9008320B2
:100754000230A7000130A800A030A9008320930133
:100764009401013083160313EE000030EF001030C3
:10077400FB003930FC000D30FD00FD0BBF2BFC0BE2
:0C078400BF2BFB0BBF2B00000000080087
:1007900083160313981690308312980083168717D8
:1007A000071383128C1ED72B1A08F000D12B0800D8
:1007B00083120317930A0319940A00301406031DC9
:1007C000E32B03301306031D092C0130AD001C2060
:1007D00001300317A7000130A8004430A90083208E
:1007E00083160313860183128613061306144D30F5
:1007F000FB001930FC004F30FD00FD0BFD2BFC0B06
:10080000FD2BFB0BFD2B00000000061003179301CE
:040810009401080047
:1008140017218A110A128000840A900A0319910A86
:08082400F003031D0A2C08007B
:10082C00EE244D308316031399001815C8239A2310
:10083C00831203171308A5001408A600BD21831208
:10084C00003003171606031D2D2C06301506031950
:10085C00432C1021700803193D2C003083166F06B1
:10086C00031D3A2C01306E06031D3D2CC822DA30D4
:10087C0083120317A400DC21252C87227008710435
:10088C000319572CA8222E30FB00A930FC002F3066
:10089C00FD00FD0B4F2CFC0B4F2CFB0B4F2C7A232C
:0808AC00582CD8231E2C592CF6
:1009DC0020308400463083120313F0005F3003177D
:1009EC009000043091000A24A030840034300313AA
:1009FC00F000A53003179000043091000A246630F3
:100A0C00840009300313F000E53003179000043024
:100A1C0091000A24D43084000C300313F000D93038
:0C0A2C0003179000043091000A24080019
:1008BE0034343134303430343334353445343734E1
:0408CE00313400348D
:1008D2005234463449344434203444346534743414
:0C08E200653463347434653464340034CD
:1008EE0044346F346F347234203443346C346F3488
:0808FE007334653464340034E6
:10090600573472346F346E34673420345034613463
:0609160073347334003459
:10091C0045346E34743465347234203463346F343B
:08092C00643465343A340034F0
:1009340045346E34743465347234203443346F3443
:0609440064346534003448
:10094A00423469346C3461346C3420344134683450
:08095A006D346534643400348F
:10096200503461347334733477346F347234643492
:1009720020344C346F3463346B3420344234793451
:0209820000343F
:1009840044346F346F34723420344F3470346534EB
:080994006E3465346434003454
:10099C005234653467346934733474346534723466
:0609AC00653464340034E0
:0C09B200313432343334343435343634CC
:0C09BE00303430343034303430343034D5
:1009CA00523446344934443420344E346F34743407
:0209DA000034E7
:02400E004A2F37
:00000001FF
